:020000040800F2
:10000000E0F2002035040008ED250008EF25000887
:10001000F3250008F7250008FB2500080000000074
:10002000000000000000000000000000FF250008A4
:10003000012600080000000003260008052600082D
:100040004F0400084F0400084F0400084F04000844
:100050004F0400084F040008271600084F0400084A
:10006000F71500084F0400084F0400084F0400086B
:100070004F0400084F0400084F0400084F04000814
:100080004F0400084F0400084F0400084F04000804
:100090004F0400084F0400084F0400084F040008F4
:1000A0004F0400084F0400084F0400084F040008E4
:1000B0004F040008091A00081B1A00084F04000822
:1000C0004F0400084F0400084F0400084F040008C4
:1000D0004F0400084F0400084F0400084F040008B4
:1000E000291900084F0400084F0400084F040008B5
:1000F0004F0400084F0400084F0400084F04000894
:100100004F0400084F0400084F0400084F04000883
:100110004F0400084F0400084F0400084F04000873
:100120004F0400084F0400084F0400084F04000863
:1001300000F002F800F064F80AA090E8000C824495
:100140008344AAF10107DA4501D100F059F8AFF272
:10015000090EBAE80F0013F0010F18BFFB1A43F0A5
:1001600001031847AC5E0000CC5E000010F8013BB4
:100170000A4413F0030408BF10F8014B1D1108BF17
:1001800010F8015B641E05D010F8016B641E01F8C5
:10019000016BF9D1002D15D010F8014B03F00C03C1
:1001A0000C2BA1EB04040ABF10F8013BA4EB831451
:1001B000A4EB032405F1010314F8016B5B1E01F8A5
:1001C000016BF9D5914238BF10F8013BD1D370478C
:1001D0000023002400250026103A28BF78C1FBD850
:1001E000520728BF30C148BF0B6070471FB59DE85C
:1001F000030004F077FC04F01AFC1FBD10B510BD1D
:1002000004F015FD1146FFF7F1FF02F06BFB04F05F
:1002100033FD03B4FFF7F2FF03BC04F061FD0000FF
:100220000B49D1F800C04A685CF8043B10681844D8
:1002300042F8040B8C4528BFA1F1DC0C8A4228BF90
:10024000A1F1DC02C1F800C04A6020F00040704714
:1002500078EC00200CB50020019000906C480068FC
:1002600040F480306A49086000BF6948006800F4C3
:10027000003000900198401C0190009818B9019836
:10028000B0F5A06FF1D16248006800F4003010B101
:100290000120009001E0002000900098012843D147
:1002A0005C48006840F010005A4908600846006841
:1002B00020F0030008600846006840F00200086073
:1002C00053484068524948600846406848600846BC
:1002D000406840F4806048600846406820F47C1024
:1002E00048600846406840F4E810486008460068E6
:1002F00040F08070086000BF4548006800F0007062
:100300000028F9D04248406820F003004049486086
:100310000846406840F00200486000BF3C48406822
:1003200000F00C000828F9D10CBD10B5FFF792FFC2
:1003300010BD10B53648006840F00100344908602F
:10034000084640683449084031494860084600681A
:10035000324908402E4908600846006820F4802091
:1003600008600846406820F4FE0048604FF41F0013
:100370008860FFF7DAFF4FF000602949086010BD80
:1003800010B5002100200022214B5B6803F00C0116
:1003900021B1042906D0082928D107E0214B224C9D
:1003A000236027E01F4B204C236023E0184B5B6841
:1003B00003F47010164B5B6803F48032022303EBE6
:1003C000904022B9194B4343174C23600DE0104B6A
:1003D0005B6803F4003323B1144B4343124C236096
:1003E00003E0104B4343104C236003E00D4B0E4CD5
:1003F000236000BF00BF064B5B68C3F303130C4CC4
:10040000E15C094B1B68CB40074C236010BD00002A
:1004100000100240002002400000FFF8FFFFF6FE3F
:1004200008ED00E000127A000000002000093D0005
:10043000040000200948804709480047FEE7FEE71E
:10044000FEE7FEE7FEE7FEE7FEE7FEE7FEE7FEE784
:1004500004480549054A064B70470000330300086D
:1004600031010008E0EC0020E0F20020E0EE002086
:10047000E0EE00200748006820F00F000549086002
:100480000846006840F003000860881501491031F3
:1004900008607047040C014007210020234A52687D
:1004A000234B1A40214B5A601A461268214B1A40BE
:1004B0001E4B1A601A46126842F480321A6000BF5E
:1004C0001A4A1268520C002AFAD04FF48062174B75
:1004D0005A601A46526842EA81425A601A46526885
:1004E00042F480325A60144A126842F03202124BCF
:1004F0001A600E4A126842F080720C4B1A6000BFFC
:100500000A4A1268520E002AFAD0084A526842F08B
:100510000202064B5A6005E0044A5268C2F38700A3
:1005200000F003000228F7D17047000000100240DD
:100530000000FFF8FFFFF6FE002002401748806928
:1005400040F00800154988610846806940F00400C1
:1005500088610846806940F0400088611048006862
:1005600020F470000E4908600846006840F440100E
:10057000086020200A49103108600A48006820F409
:100580007000084908600846006840F440100860A0
:10059000202004491031086070470000001002401C
:1005A00000180140000C014010B5024600201EE07A
:1005B000012A0AD10B5C104C238000BF0E4B1B1F7D
:1005C0001B880124B4EBE31FF8D1022A0AD10B5C8B
:1005D0000A4C238000BF094B1B1F1B880124B4EB6E
:1005E000E31FF8D1FF2800D104E0431CD8B20B5C14
:1005F000002BDDD100BF10BD043801400444004091
:100600002DE9F05F05460E46300104F0D3FC81462B
:10061000284905FB01F004F0CDFC8246494604F070
:10062000E7FB0746384604F0A5FC84B2204604F0F8
:10063000C1FC8346394604F09DFD82464FF083415C
:1006400004F0CCFC814604F095FC80464FF6FF7028
:1006500000EA041404EB080084B21748806940F0F3
:100660000400154988610846C06940F40030C8613B
:100670001248006820F47F4010490860084600686E
:1006800040F40B4008600C48006940F400300A490F
:1006900008610846006920F40030086108480480B9
:1006A000001D008842F2080108430549091D088021
:1006B000BDE8F09F40420F000010024000080140DA
:1006C00008440040F74908807047F649891E0880B1
:1006D00070472DE9F04707460D4690461E46DDE976
:1006E000084900220023012C01D1DFF8BCA3022C11
:1006F00001D1DFF8B8A3032C01D1DFF8B4A3042C97
:1007000001D1DFF8B0A3052C01D1DFF8ACA3062C92
:1007100001D1DFF8A8A3072C01D1DFF8A4A3082C8E
:1007200001D1DFF8A0A3092C01D1DFF89CA30A2C8A
:1007300001D1DFF898A30B2C01D1DFF894A32A2074
:10074000FFF7C3FF3812FFF7BDFFF8B2FFF7BAFF9C
:10075000E919491EC1F30F20FFF7B4FFE919491E3B
:10076000C8B2FFF7AFFF2B20FFF7AFFF4FEA2820FB
:10077000FFF7A8FF08F0FF00FFF7A4FF06EB080152
:10078000491EC1F30F20FFF79DFF06EB0801491E2C
:10079000C8B2FFF797FF2C20FFF797FFB9F1010FC1
:1007A0000AD1002204E03AF81200FFF78BFF521C36
:1007B00005FB06F09042F6DCB9F1020F0FD10023E1
:1007C0000BE0002206E002FB05313AF81100FFF7CA
:1007D00079FF521CAA42F6DB5B1CB342F1DBB9F194
:1007E000030F11D100230DE0002208E0591C6943DA
:1007F000891A491E3AF81100FFF764FF521CAA42F9
:10080000F4DB5B1CB342EFDBB9F1040F11D1002321
:100810000DE0002208E0511C6943C91A491E3AF84C
:100820001100FFF74FFF521CAA42F4DB5B1CB342DE
:10083000EFDBBDE8F08700B50120FFF746FF112090
:10084000FFF743FF3A20FFF740FF5520FFF73AFF3D
:100850002920FFF73AFF3620FFF737FFCA20FFF7BE
:1008600031FF00BD00B59B48406940F48070994954
:1008700048610846806940F0080088610846806940
:1008800040F0200088610846806940F0400088619F
:100890000846806940F4807088618F48006820F0C5
:1008A0000F008D4908600846006840F003000860AA
:1008B0008A4800688A4908408849086008460068F4
:1008C0008849084385490860081F006800F0FF2038
:1008D000091F08600846006840F0BB1008608248A5
:1008E00000680020804908600846006840F0BB307E
:1008F0000860081F006820F07040091F0860084663
:10090000006840F0304008607848406820F470206B
:10091000764948600846406840F430204860084600
:10092000006820F00F0008600846006840F00B00E7
:10093000086000204FF020418861C8616C49086060
:100940004FF02040806940F480504FF02041886192
:100950000846806940F4804088610846806940F01C
:10096000100088610846C069C8610846C06940F047
:100970000100C8610846C06940F47060C8615C4805
:100980000068C1F81C015A480068C1F81C010846FB
:10099000D0F81C0140F44070C1F81C010846806981
:1009A00040F001008861FFF746FF4B480C300068BB
:1009B00040F0010048490C31086000BD10B5034605
:1009C0000C462A20FFF781FE1812FFF77BFED8B2F3
:1009D000FFF778FE0120FFF775FE3F20FFF772FE5C
:1009E0002B20FFF772FE2012FFF76CFEE0B2FFF73C
:1009F00069FE0120FFF766FEDF20FFF763FE2C2073
:100A0000FFF763FE1046FFF75DFE10BDF0B5074629
:100A10000C46059D00262A20FFF757FE2012FFF7FF
:100A200051FEE0B2FFF74EFE1119491EC1F30F202F
:100A3000FFF748FE1119491EC8B2FFF743FE2B20ED
:100A4000FFF743FE1812FFF73DFED8B2FFF73AFE5C
:100A5000E918491EC1F30F20FFF734FEE918491EBB
:100A6000C8B2FFF72FFE2C20FFF72FFE00BF03E0D8
:100A70003846FFF727FE761C02FB05F0B042F7D898
:100A8000F0BD2DE9F04F04460D4616469A46DDF8B6
:100A9000249010224FF0080B202E01DB7F2E29DD41
:100AA000BDE8F08F0008006C140000203403002023
:100AB0005406002074090020940C0020B40F00207C
:100AC000D4120020F415002014190020341C00203A
:100AD000541F002000100240000C0140041401408B
:100AE00000F0FF00BB0B00BB0418014000200140D8
:100AF0001C0100A0A6F12000C6B22A20FFF7E5FDE8
:100B00002012FFF7DFFDE0B2FFF7DCFD0BEB040185
:100B1000491EC1F30F20FFF7D5FD0BEB0401491E61
:100B2000C8B2FFF7CFFD2B20FFF7CFFD2812FFF74C
:100B3000C9FDE8B2FFF7C6FD5119491EC1F30F20E8
:100B4000FFF7C0FD5119491EC8B2FFF7BBFD2C20AD
:100B5000FFF7BBFD002327E04FF000081DE0002752
:100B600015E0FE4800EB0610012101EB4701C91A10
:100B7000405C40FA08F000F0010018B15046FFF761
:100B8000A1FD02E04846FFF79DFD781CC7B25F4516
:100B9000E7DB08F1010000F0FF0802EBD271B8EBCF
:100BA000610FDCDB581CC3B2D11702EB5171B3EB00
:100BB000E10FD1DB00BFBDE8F08F2DE9F04705461E
:100BC0000C46DDE90897DDF828802A20FFF77DFD37
:100BD0001012FFF777FDD0B2FFF774FDA118491E80
:100BE000C1F30F20FFF76EFDA118491EC8B2FFF731
:100BF00069FD2B20FFF769FD1812FFF763FDD8B2DE
:100C0000FFF760FDE918491EC1F30F20FFF75AFDF9
:100C1000E918491EC8B2FFF755FD2C20FFF755FD16
:100C2000A5F1010A15E000260FE00AFB0460CC499B
:100C300011F8100000F0010018B13846FFF742FD2E
:100C400002E04046FFF73EFD761CA642EDDBAAF12E
:100C5000010ABAF1000FE6DABDE8F0872DE9F047A6
:100C600005460C46DDE90897DDF828802A20FFF7C5
:100C70002CFD1012FFF726FDD0B2FFF723FDA118BF
:100C8000491EC1F30F20FFF71DFDA118491EC8B270
:100C9000FFF718FD2B20FFF718FD1812FFF712FDC4
:100CA000D8B2FFF70FFDE918491EC1F30F20FFF777
:100CB00009FDE918491EC8B2FFF704FD2C20FFF713
:100CC00004FDA5F1010A15E000260FE00AFB04600F
:100CD000A44911F8100000F0010018B13846FFF7E0
:100CE000F1FC02E04046FFF7EDFC761CA642EDDB8E
:100CF000AAF1010ABAF1000FE6DABDE8F0872DE9A2
:100D0000F04706460C46DDE90989089F2A20FFF7CF
:100D1000DCFC1012FFF7D6FCD0B2FFF7D3FCA11811
:100D2000491EC1F30F20FFF7CDFCA118491EC8B220
:100D3000FFF7C8FC2B20FFF7C8FC1812FFF7C2FC16
:100D4000D8B2FFF7BFFCF118491EC1F30F20FFF71F
:100D5000B9FCF118491EC8B2FFF7B4FC2C20FFF70C
:100D6000B4FCA6F1010A35E000252FE06FB90AFBBB
:100D700004507D49085C00F0010018B14046FFF7BF
:100D8000A1FC02E04846FFF79DFC012F0DD10AFBB4
:100D900004507649085C00F0010018B14046FFF7A6
:100DA00091FC02E04846FFF78DFC022F0DD10AFBB3
:100DB00004506F49085C00F0010018B14046FFF78D
:100DC00081FC02E04846FFF77DFC6D1CA542CDDBAF
:100DD000AAF1010ABAF1000FC6DABDE8F0872DE9E1
:100DE000F04105460C46DDF818802A20FFF76DFC1F
:100DF0001012FFF767FCD0B2FFF764FCA118491E80
:100E0000C1F30F20FFF75EFCA118491EC8B2FFF71F
:100E100059FC2B20FFF759FC1812FFF753FCD8B2EE
:100E2000FFF750FCE918491EC1F30F20FFF74AFCF9
:100E3000E918491EC8B2FFF745FC2C20FFF745FC16
:100E40006F1E0DE0002608E007FB0461DFF810C10B
:100E50003CF81100FFF736FC761CA642F4DB7F1E3F
:100E6000002FEFDABDE8F0810FB583B006980028B7
:100E700053D10A2000900598823080B202900498E5
:100E80000A3080B2019037220146DDE90230FFF7D7
:100E9000BDFD3720009005984B3080B20290049839
:100EA000413080B201900A220146DDE90230FFF7AD
:100EB000ADFD3720009005980A3080B2029004986A
:100EC000413080B201900A220146DDE90230FFF78D
:100ED0009DFD0A20009004980A3080B202903722CB
:100EE0000146059B0398FFF791FD37200090059878
:100EF0000A3080B203460A220290DDE90301FFF7BF
:100F000085FD3720009005984B3080B203460A22B9
:100F10000290DDE90301FFF779FD069801282DD144
:100F20003720009005984B3080B2029004984130F1
:100F300080B201900A220146DDE90230FFF766FD2A
:100F40003720009005980A3080B202900498413012
:100F500080B201900A2201460CE0000074520008A1
:100F6000742200203CD20020C4E5002054E7002079
:100F7000E4E80020DDE90230FFF748FD069802288A
:100F800047D10A2000900598823080B202900498E0
:100F90000A3080B2019037220146DDE90230FFF7C6
:100FA00035FD3720009005984B3080B202900498B0
:100FB000413080B201900A220146DDE90230FFF79C
:100FC00025FD0A20009004980A3080B20290372252
:100FD0000146059B0398FFF719FD372000900598FF
:100FE0000A3080B203460A220290DDE90301FFF7CE
:100FF0000DFD0A2000900598413080B202900498BF
:101000000A3080B2019037220146DDE90230FFF755
:10101000FDFC069803284BD10A20009005988230E9
:1010200080B2029004980A3080B2019037220146C3
:10103000DDE90230FFF7EAFC3720009005984B30DD
:1010400080B202900498413080B201900A22014699
:10105000DDE90230FFF7DAFC3720009005980A300E
:1010600080B202900498413080B201900A22014679
:10107000DDE90230FFF7CAFC0A20009004980A302C
:1010800080B2029037220146059B0398FFF7BEFC11
:101090000A2000900598413080B2029004980A30EE
:1010A00080B2019037220146DDE90230FFF7AEFC45
:1010B000069804283BD13720009005984B3080B229
:1010C00002900498413080B201900A220146DDE985
:1010D0000230FFF79BFC3720009005980A3080B261
:1010E00002900498413080B201900A220146DDE965
:1010F0000230FFF78BFC0A2000900598413080B247
:10110000029004980A3080B2019037220146DDE94E
:101110000230FFF77BFC3720009005984B3080B2FF
:1011200003460A220290DDE90301FFF76FFC0698EF
:10113000052847D10A2000900598823080B202909D
:1011400004980A3080B2019037220146DDE902306E
:10115000FFF75CFC3720009005980A3080B20290BF
:101160000498413080B201900A220146DDE9023044
:10117000FFF74CFC0A20009004980A3080B20290DD
:1011800037220146059B0398FFF740FC372000906B
:1011900005984B3080B203460A220290DDE9030134
:1011A000FFF734FC0A2000900598413080B202908D
:1011B00004980A3080B2019037220146DDE90230FE
:1011C000FFF724FC0698062853D10A2000900598C2
:1011D000823080B2029004980A3080B201903722A7
:1011E0000146DDE90230FFF711FC37200090059839
:1011F0000A3080B202900498413080B201900A22F5
:101200000146DDE90230FFF701FC0A200090049856
:101210000A3080B2029037220146059B0398FFF7FF
:10122000F5FB3720009005980A3080B203460A2269
:101230000290DDE90301FFF7E9FB372000900598F4
:101240004B3080B203460A220290DDE90301FFF72A
:10125000DDFB0A2000900598413080B2029004988E
:101260000A3080B2019037220146DDE90230FFF7F3
:10127000CDFB069807282FD10A20009005988230D0
:1012800080B2029004980A3080B201903722014661
:10129000DDE90230FFF7BAFB3720009005984B30AC
:1012A00080B202900498413080B201900A22014637
:1012B000DDE90230FFF7AAFB3720009005980A30DD
:1012C00080B202900498413080B201900A22014617
:1012D000DDE90230FFF79AFB0698082863D10A205F
:1012E00000900598823080B2029004980A3080B253
:1012F000019037220146DDE90230FFF787FB3720F6
:10130000009005984B3080B202900498413080B232
:1013100001900A220146DDE90230FFF777FB372012
:10132000009005980A3080B202900498413080B253
:1013300001900A220146DDE90230FFF767FB0A202F
:10134000009004980A3080B2029037220146059B33
:101350000398FFF75BFB3720009005980A3080B2B6
:1013600003460A220290DDE90301FFF74FFB372015
:10137000009005984B3080B203460A220290DDE9C6
:101380000301FFF743FB0A2000900598413080B22B
:10139000029004980A3080B2019037220146DDE9BC
:1013A0000230FFF733FB0698092857D10A20009036
:1013B0000598823080B2029004980A3080B2019081
:1013C00037220146DDE90230FFF720FB372000908D
:1013D00005984B3080B202900498413080B2019061
:1013E0000A220146DDE90230FFF710FB37200090AA
:1013F00005980A3080B202900498413080B2019082
:101400000A220146DDE90230FFF700FB0A200090C6
:1014100004980A3080B2029037220146059B039857
:10142000FFF7F4FA3720009005984B3080B203465E
:101430000A220290DDE90301FFF7E8FA0A20009092
:101440000598413080B2029004980A3080B2019031
:1014500037220146DDE90230FFF7D8FA07B000BDB8
:101460002DE9F0419CB080460D4616461F464822A5
:1014700050490AA803F0E4FA20224E49483102A854
:1014800003F0DEFA002400BF1EE0C7EBC7000AA984
:101490000844005DB0B102A800EB8400C078009061
:1014A00002A800EB84008078304483B202A800EBED
:1014B0008400427802A810F82400284481B24046F3
:1014C000FFF7A4FA601CC4B2072CDEDB1CB0BDE839
:1014D000F0812DE9F04F04460D4690469A46DDF81E
:1014E0002490102293462A20FFF7EFF82012FFF7EE
:1014F000E9F8E0B2FFF7E6F80BEB0401491EC1F38F
:101500000F20FFF7DFF80BEB0401491EC8B2FFF70D
:10151000D9F82B20FFF7D9F82812FFF7D3F8E8B253
:10152000FFF7D0F85119491EC1F30F20FFF7CAF891
:101530005119491EC8B2FFF7C5F82C20FFF7C5F8AE
:10154000002723E000261AE0002314E01A4800EBED
:101550004810012101EB4301C91B405C304100F000
:10156000010018B15046FFF7ADF802E04846FFF71A
:10157000A9F8581CC3B25B45E8DB701CC6B202EB8D
:10158000D271B6EB610FDFDB781CC7B2D11702EB6B
:101590005171B7EBE10FD5DBBDE8F08F08B54FF423
:1015A000C87000230246194600901846FFF72EFA2D
:1015B00008BD0000A459000864580008002100E09C
:1015C000491C8142FCD37047F9480068401CF84927
:1015D0000860F848006840B944F62060F5490860A2
:1015E0000020F5490860F5490860F2480068401E8F
:1015F000F0490860704710B500240EE02020F04943
:101600000860F048FFF7DAFF2020ED49091F086065
:10161000EC48FFF7D3FF601CC4B20A2CEEDB0420B9
:10162000E949086010BD10B500240EE02020E7490C
:101630000860E448FFF7C2FF2020E449091F086062
:10164000E048FFF7BBFF601CC4B20A2CEEDB0120B0
:10165000DD49086010BD014601F007021202DC4BB3
:1016600018684FF6FF031840DA4B18431043D84B65
:1016700018607047D848806940F04000D6498861BA
:10168000D2481438006820F47060D04914390860DA
:101690000846006840F400600860CC4808380068DC
:1016A00040F00400C94908390860CB48806940F01F
:1016B0000100C9498861C948806820F47060C74941
:1016C00088600846806840F480608860BE481438AE
:1016D000006840F00400BC4914390860BA48083872
:1016E000006840F00400B849083908606521BC482A
:1016F0000170BC48006840F480704FF0E021C1F8F0
:1017000000017047B448806940F00400B249886124
:10171000B548006820F00F00B3490860084600682B
:1017200040F008000860B0480C300068AE490C3149
:101730000860A948806940F00100A7498861A7486E
:10174000806820F00F00A54988600846806888609E
:101750009D481438006840F001009B491439086026
:1017600099480838006840F0010097490839086036
:1017700075219B48801E01709A48006840F0400027
:101780004FF0E021C1F80001704710B59248806920
:1017900040F01000904988619448406820F47F40F0
:1017A000924948600846406840F40840486008464E
:1017B000C06840F40060C8608748806940F001005C
:1017C000854988618548006920F47041834801613A
:1017D000006940F40051814801617B481438006879
:1017E00040F4006078491439086077480838006888
:1017F00040F4006074490839086065217848203059
:1018000001707848001D006840F480704FF0E021BE
:10181000C1F804010121022003F08AF8744908602C
:101820000B200968087072490968487010BD70285B
:1018300003D100216E4A12681170692803D1012179
:101840006B4A12681170722803D10221684A12682B
:1018500011707A2803D10321654A126811706B2830
:1018600003D10421624A12681170732803D1052143
:101870005F4A12681170742803D106215C4A12680D
:1018800011706C2803D10721594A1268117075280C
:1018900003D10821564A126811707D2803D109210D
:1018A000534A12681170772803D10A21504A1268EE
:1018B00011705A2803D04F490978E02903D10B2130
:1018C0004B4A126811704A4909680978062903D100
:1018D0000121494A12685170454909680978082967
:1018E00003D10221444A12685170414909680978BC
:1018F000042903D10321404A126851703C49096808
:101900000978052903D104213B4A126851703849EE
:1019100009680978364A126851700B21344A1268F6
:10192000117034490870704710B52748006800F4FA
:10193000006000283BD02D488068C0F380202F49EC
:1019400008702F480068401C40B90846007828BB42
:1019500000202C4908702A4908601FE028480068C8
:1019600008280FDA25480078254909788840254954
:10197000097808432349087021480068401C204921
:1019800008600BE01E480068082807D11D48007851
:10199000FFF74DFF4FF0FF30194908600A20FFF7AD
:1019A0000DFE0948006840F001000749086010BDBD
:1019B00074EA002078EA00207CEA002080EA002017
:1019C000140C014040420F0014040140141801405F
:1019D0000CED00E00000FA0500100240000001409C
:1019E00008E400E000E100E00008014000100140D0
:1019F0008CEA002089EA00205CEB00208AEA0020C3
:101A000090EA002088EA0020FE480088FD4800880F
:101A100020F00100FB4908807047FB48008800F077
:101A2000010028B1F948006880F02000F7490860FB
:101A3000F548008820F00100F34908807047F44A17
:101A4000D26942F00202F24BDA61EE4A1C32108097
:101A5000121F1180EB4A121F128842F00102E94B5B
:101A60001B1F1A80E74A103A128842F00102E54B28
:101A7000103B1A804523E74A1370E74A126842F088
:101A800000524FF0E023C3F800217047E04AD269CA
:101A900042F00402DE4BDA61DB4A1C321080121F76
:101AA0001180D94A121F128842F00102D64B1B1F27
:101AB0001A80D54A103A128842F00102D24B103BEC
:101AC0001A804523D34A521C1370D34A126842F03D
:101AD00080424FF0E023C3F80021704700204FF010
:101AE000E0210861CD4848610846006920F0040003
:101AF00008610846006940F0020008610846006974
:101B000040F0010008617047C14A926942F0080242
:101B1000BF4B9A61C24A126822F47002C04B1A602D
:101B20001A46126842F430021A60B94A926942F0C9
:101B30000102B74B9A61BB4A526822F44062B94B2A
:101B40005A601A46526842F400625A60B04AD2693A
:101B500042F00202AE4BDA61AA4A1C321080121F18
:101B60001180A84A0832128842F4E042A54B08339B
:101B70001A801A46128842F400621A80A14A103272
:101B8000128842F010029F4B10331A8080229D4B26
:101B9000103B1A801A46128842F001021A807047E0
:101BA0009B4A926942F00802994B9A619C4A1268DA
:101BB00022F470029A4B1A601A46126842F43002FC
:101BC0001A60934A926942F00102914B9A611A4657
:101BD000926942F010029A61934A126822F07F42A1
:101BE000914B1A601A46126842F03B421A601A463C
:101BF000526822F00F025A601A46526842F00B02F5
:101C00005A60834A926942F00102814B9A61854A87
:101C1000526822F44062834B5A601A46526842F47A
:101C200000625A601A46526842F480625A60784AEA
:101C3000D26942F00202764BDA61724A1C3210809D
:101C4000121F11806F4A0832128842F070026D4BE9
:101C500008331A801A46128842F008021A801A467F
:101C6000128842F4E0421A801A46128842F4006256
:101C70001A801A1D128842F070021B1D1A801A4623
:101C8000128842F008021A801A1D128842F00102DE
:101C90001B1D1A801A46128842F010021A801A463A
:101CA000128842F480721A808022564B103B1A80B0
:101CB0001A46128842F001021A80704720205849C3
:101CC00010310860704700B5FFF7F8FF00BD10B590
:101CD00040F2DC50FFF772FC5448007828B15448B9
:101CE0000088401C5249088004E051480088401E8A
:101CF0004F4908804E48008841F28831884202DD11
:101D000000204A4908704A48008810B90120474914
:101D10000870474800883B492831088010BD70B5DD
:101D2000054601260DB1002401E041F288340EE0A1
:101D300040F2DC50FFF742FC15B1601C84B201E0B8
:101D4000601E84B22F4828300480701C86B241F295
:101D500088308642ECDB70BD2DE9F04704460D4625
:101D600016464FF0010A34B1012C02D14FF00008A1
:101D700001E041F288382DB1012D01D1002701E0A9
:101D800041F2883736B1012E02D14FF0000901E04F
:101D900041F2883935E040F2DC50FFF70FFC54B1D6
:101DA000012C04D108F101001FFA80F803E0A8F12A
:101DB00001001FFA80F835B1012D02D1781C87B2DD
:101DC00001E0781E87B256B1012E04D109F101005D
:101DD0001FFA80F903E0A9F101001FFA80F91CB194
:101DE00008482430A0F8008015B106482830078044
:101DF0001EB104482C30A0F800900AF101001FFA2F
:101E000080FA17E010040040100800400C18014050
:101E1000001002401DE400E000E100E08F5F0100DF
:101E2000000C0140000001400010014096EA002033
:101E300094EA002041F288308245ACDBBDE8F087AF
:101E4000002211460120FFF787FF1DE0002201213B
:101E50001046FFF781FF00221146FF20FFF77CFFAD
:101E6000012200210846FFF777FF0022FF211046DC
:101E7000FFF772FF002211460120FFF76DFFFF22DE
:101E800000210846FFF768FFE0E710B50022114681
:101E90000120FFF761FF00221146FF20FFF75CFFE2
:101EA000002201210846FFF757FF0022FF210846C4
:101EB000FFF752FF002201211046FFF74DFF0022DD
:101EC000FF211046FFF748FF012211460020FFF7CF
:101ED00043FFFF2211460020FFF73EFF01220021B1
:101EE0000846FFF739FFFF2200210846FFF734FFBD
:101EF000012200211046FFF72FFFFF22002110468C
:101F0000FFF72AFF10BD000070B505460E460121FF
:101F1000022002F00DFD044625706670204670BD5B
:101F20002DE9F04106460C46204602F015FD074615
:101F3000002502E0705D78556D1CA542FADB38463D
:101F4000BDE8F0812DE9F04707468846914601211A
:101F5000B42002F0EDFC054600261EE0002419E046
:101F6000FE48204406EB460110F8210030B1012064
:101F700006EB460104EB810168540AE0022006EBFF
:101F8000460104EB81016854F5480078401CF4498F
:101F90000870641C0C2CE3DB761C0F2EDEDB0321A7
:101FA0003878A8307A7802EB4202A0EB82002954FC
:101FB000EB480078401EEA490870002415E058F804
:101FC00024000078A83058F82410497801EB41012A
:101FD000A0EB810000F0FF0A15F80A00E14909684A
:101FE0000855042005F80A00641CDF480078844284
:101FF000E5DB00240BE0DD49096851F824000221EB
:10200000FFF78EFFDA49096841F82400641CD648BE
:1020100000788442EFDB002412E0052159F8240007
:102020000078A83059F82420527802EB4202A0EB45
:1020300082002954CA480078401EC9490870641CAF
:10204000CC4800788442E8DB2846BDE8F0870129C7
:1020500002D10278521C0270022902D14278521C2D
:102060004270032902D10278521E0270042902D163
:102070004278521E4270704701460878A8304A786C
:1020800002EB4202A0EB8200BB4A1268105C0128FE
:1020900001D0012070470020FCE70A4611460129C3
:1020A00002D103780B3B0370022902D143780E3B27
:1020B0004370032902D103780B330370042902D142
:1020C00043780E334370704730B5034600201C78C8
:1020D000A8345D7805EB4505A4EB85020C2492FB42
:1020E000F4F504FB15240B2C02D1012900D10120A9
:1020F0000C2A02DA022900D102200C2492FBF4F50A
:1021000004FB152414B9032900D10320A82A02DBFB
:10211000042900D1042030BD2DE9F04704460D46C6
:10212000022002F019FC06460027E15D2846FFF771
:10213000CBFF00F0FF082878307068787070B8F135
:10214000000F0CD041463046FFF7A7FF8146FFF74E
:1021500093FF80B141462846FFF79FFF0BE0E15D0A
:102160003046FFF774FF3046FFF786FF18B1E15D98
:102170002846FFF76CFF304602F01DFCBDE8F087F3
:102180002DE9F04704460D461646022002F0E4FB16
:102190000746A15D2846FFF797FF00F0FF08287863
:1021A000387068787870B8F1000F13D0414638461F
:1021B000FFF773FF8146FFF75FFF30B141462846C6
:1021C000FFF76BFF6078207017E029462046FFF785
:1021D000A3FF12E0A15D3846FFF739FF3846FFF74D
:1021E0004BFF30B1A15D2846FFF731FF60782070CA
:1021F00003E029462046FFF78FFF384602F0DBFB5D
:10220000BDE8F0872DE9F84F0546894692469B4682
:1022100099F80000A83099F8011001EB4101A0EBFA
:10222000810000F0FF08002612E000240DE02819CC
:1022300006EB460110F82100032805D100202919DA
:1022400006EB460201F82200641C0C2CEFDB761C26
:102250000F2EEADB4248007810B901204749087088
:1022600015F80800022811D13D480078401E3C496D
:1022700008704FF480704249086040F6B830FFF7AC
:102280009DF94FF480703E49091D086015F808005B
:1022900005280CD128203B49087000203A490870D5
:1022A0003A4908703A4800780A303949087015F8F8
:1022B000080004281CD13348007810B11420354997
:1022C000087028480068005D022811D12448007871
:1022D000401E234908704FF480702949086040F679
:1022E000B830FFF76BF94FF480702549091D08607D
:1022F000032005F80800002469E05BF8240000785A
:10230000A8305BF82410497801EB4101A0EB810073
:10231000C0B200905AF824000078A8305AF824106F
:10232000497801EB4101A0EB8100C7B20D4800687C
:10233000015D00982954E85D03282DD111480078EB
:1023400058B91E20104908701148007828B110486B
:1023500000780A380E49087022E021E097EA002050
:1023600060EB002070EB00207AEB00206CEB00208B
:1023700088EB00207BEB002054EB002092EB002048
:10238000100C01407DEB002079EB002078EB002061
:1023900096EB002090EB0020E85D8D490968085518
:1023A0000420E8558B48006850F8240000788A49DA
:1023B000096851F8241008708648006850F8240015
:1023C00040788549096851F824104870641C834896
:1023D0000078844291DBBDE8F88F2DE9FE4F064678
:1023E00088461746FDF71CFF00F0FF090025EAE0CC
:1023F0000024E4E0301905EB450110F82100012824
:1024000011D11420009005EB85008000C0F5967076
:1024100083B204EB84008004010C14224FF6FF7099
:10242000FEF7F4FACAE0301905EB450110F8210077
:1024300002281FD1032099FBF0F100FB119000F05E
:10244000FF0A00204FF6E071CDE900A1029005EBF4
:1024500085008000C0F5967083B204EB8400800490
:10246000020C14210846FEF74AFC09F1010000F0B5
:10247000FF09A3E0301905EB450110F8210080B9F0
:102480001420009005EB85008000C0F5967083B2A3
:1024900004EB84008004010C14220020FEF7B6FA3D
:1024A0008CE0301905EB450110F82100042828D1F3
:1024B0004B48007890B101200821CDE9001005EBD0
:1024C00085018900C1F596718AB204EB8401890403
:1024D000080C14231946FEF7FCF86FE001200521D3
:1024E000CDE9001005EB85018900C1F596718AB22E
:1024F00004EB84018904080C14231946FEF7E9F85B
:102500005CE0301905EB450110F82100052812D1D7
:1025100001200721CDE9001005EB85018900C1F5F7
:1025200096718AB204EB84018904080C14231946BD
:10253000FEF7CFF842E0301905EB450110F8210015
:1025400003283BD12748007888B1042005EB85019A
:102550008900C1F596718AB204EB84018904CDE942
:102560000007080C14231946FEF7B3F826E01E48AE
:10257000007880B11420009005EB85008000C0F544
:10258000967083B204EB84008004010C14220020B6
:10259000FEF73CFA12E008F10200C0B205EB85013B
:1025A0008900C1F596718AB204EB84018904CDE9F2
:1025B0000007080C14231946FEF78BF8641C0C2C3A
:1025C000FFF618AF6D1C0F2DFFF612AFBDE8FE8FA2
:1025D00070EB00206CEB002088EB00207AEB0020F1
:1025E00090EB00207DEB002078EB0020704700BFCF
:1025F000FEE700BFFEE700BFFEE700BFFEE7704753
:102600007047704702480068401C014908607047E5
:1026100050EB002070B5034600205C7804EB4404C6
:10262000FD4D05EBC4041D7834F815208AB30A2447
:1026300092FBF4F504FB1524012C02D1012900D1F1
:1026400001200A2492FBF4F40A2594FBF5F605FB1D
:102650001644012C02D1022900D10220642492FBED
:10266000F4F40A2594FBF5F605FB1644012C02D17F
:10267000032900D103204FF47A7492FBF4F40A2565
:1026800094FBF5F605FB1644012C02D1042900D178
:10269000042070BD30B504460D4629462046FFF79C
:1026A000B9FFA0B1012D02D120780B382070022D86
:1026B00002D160780E386070032D02D120780B3083
:1026C0002070042D17D160780E30607013E0012D5A
:1026D00002D12078401C2070022D02D16078401C6D
:1026E0006070032D02D12078401E2070042D02D18D
:1026F0006078401E607030BD2DE9F04106460D4601
:10270000002702213046FFF70BFC044629462046ED
:10271000FFF780FFA0B1012D02D120780B38207087
:10272000022D02D160780E386070032D02D120781E
:102730000B302070042D17D160780E30607013E0DC
:10274000012D02D12078401C2070022D02D160782A
:10275000401C6070032D02D12078401E2070042D93
:1027600002D16078401E6070607800EB4000AB4999
:1027700001EB80002178475C204602F01CF93846C6
:10278000BDE8F0812DE9F84F05460E46904600273A
:10279000B94600200090FDF743FD8346FDF740FD5C
:1027A0000BFB00FA504602F02DF99D48006850F8E6
:1027B00026009C490860012409E0E1B299480068BC
:1027C000FFF79AFF10B1EC55781CC7B2641C042CBB
:1027D000F3DDFDF725FDC0B20090009890FBF7F106
:1027E00007FB110015F80090B8F1000F02D0484621
:1027F000BDE8F88F8A49096851F826004946FFF775
:1028000049FF0020F4E770B501218748007802F005
:102810008FF80546002403E0FDF702FD2855641CEF
:10282000814800788442F7DB284670BD7E4A1278E2
:10283000052A12DA7A4A12687B4B1B7852F8232059
:102840001070774A1268784B1B7852F82320517029
:10285000754A1278521C744B1A7070472DE9F0417A
:1028600004460025A00002F077F8064600BF06E007
:10287000022002F071F8074646F825706D1CA5424B
:10288000F6DB3046BDE8F081684A1278042A12DA95
:10289000674A1268654B1B7852F823201070644A0F
:1028A0001268624B1B7852F8232051705F4A1278ED
:1028B000521C5E4B1A7070472DE9F041044600250A
:1028C000A00002F049F8064600BF06E0022002F030
:1028D00043F8074646F825706D1CA542F6DB3046E6
:1028E000BDE8F08100B58BB0FDF7D6FDFDF726FE03
:1028F000FDF7C0FDFDF7B6FFFEF747FF0520FEF729
:10290000AAFE41F61F4141F28730FFF798F8FFF722
:10291000E5F84FF416512420FDF772FE01204549D9
:102920000870002044490870444908704449087000
:10293000444908703C4908703C49087014204249D9
:1029400008700121042001F0F3FF404908600121D3
:102950000846FFF7D9FA3E49086001210846FFF70B
:10296000D3FA3C49086000210846FFF7CDFA3A49FE
:1029700008600420FFF7A0FF2D4908600D21012009
:10298000FFF782FF02210120FFF77EFF0D210A20C1
:10299000FFF77AFF01210A20FFF776FF0520FFF7F6
:1029A0005DFF1F4908600D210220FFF73FFF1C4813
:1029B000006800681B49086001211B48007801F08D
:1029C000B7FF26490860FFF71EFF2549086001216F
:1029D0001548007801F0ACFF2249086012480078E1
:1029E0008000049001F0B8FF1F49086000201F49D3
:1029F00008701F490870FDF713FC1E49087000207D
:102A00001D49087064201D49087000201C49087089
:102A10001C49087004E200000C5A0008745B0008AE
:102A20006CEB002068EB00207AEB00207BEB0020B1
:102A300074EB002061EB002060EB002079EB0020BC
:102A400078EB00207DEB00207CEB00208CEB00205D
:102A500064EB002058EB00205CEB002070EB0020C2
:102A600080EB002084EB002088EB002092EB00201C
:102A700093EB002091EB002094EB002096EB0020DC
:102A800097EB002098EB002000200490049800B100
:102A9000C7E1FE48FEF792FD4FF4A0700023F0223C
:102AA000194600901846FDF7B1FF4FF6E07000217F
:102AB000009196231422CDE9011019461846FEF71D
:102AC0007CF84FF6FF70002100917D239622CDE91E
:102AD000011032210846FEF7C1F81F2000210091A5
:102AE0007D23BE22CDE9011032210846FEF7B6F85B
:102AF00000204FF6FF733122642100905020FDF733
:102B0000C0FF00204FF6FF7331226421009058204F
:102B1000FDF7B7FF00204FF6FF73352264210090C8
:102B20006020FDF7AEFF00204FF6FF7335226421D1
:102B300000906820FDF7A5FF00204FF6FF733122BB
:102B4000642100907020FDF79CFF00204FF6FF737A
:102B50003522642100907820FDF793FF00204FF686
:102B6000FF733722642100908020FDF78AFF002048
:102B70004FF6FF733322642100908820FDF781FF18
:102B800000204FF6FF733222642100909020FDF761
:102B900078FF00204FF6FF733022642100909820C8
:102BA000FDF76FFF00204FF6FF73312246210090A2
:102BB0005020FDF766FF00204FF6FF7331224621BB
:102BC00000905820FDF75DFF00204FF6FF7335227F
:102BD000462100906020FDF754FF00204FF6FF7360
:102BE0003522462100906820FDF74BFF00204FF66C
:102BF000FF733122462100907020FDF742FF002034
:102C00004FF6FF733522462100907820FDF739FFFB
:102C100000204FF6FF733522462100908020FDF7FB
:102C200030FF00204FF6FF733622462100908820A7
:102C3000FDF727FF00204FF6FF7331224621009059
:102C40009020FDF71EFF00204FF6FF733322462130
:102C500000909820FDF715FF00204FF6FF73024605
:102C6000642100904620FEF734FC00204FF6FF73ED
:102C70000122642100903620FEF72BFC00204FF645
:102C8000FF730222642100902620FEF722FC002020
:102C90004FF6FF730522462100902620FEF719FC0F
:102CA00000204FF6FF730422462100903620FEF7E5
:102CB00010FC00204FF6FF730322462100900846C7
:102CC000FEF707FC00204FF6E07350222821009009
:102CD0002620FDF7D6FE00204FF6E0737222282151
:102CE00000902E20FDF7CDFE00204FF6E073652208
:102CF000282100903620FDF7C4FE00204FF6E07337
:102D00007322282100903E20FDF7BBFE00204FF6E5
:102D1000E0737322282100904620FDF7B2FE0020C8
:102D20004FF6E0732222282100905620FDF7A9FEDD
:102D300000204FF6E0734B22282100905E20FDF723
:102D4000A0FE00204FF6E073452228210090662067
:102D5000FDF797FE00204FF6E073592228210090DE
:102D60006E20FDF78EFE00204FF6E0733222282100
:102D700000907620FDF785FE00204FF6E0732222BA
:102D8000282100907E20FDF77CFE00204FF6E073A6
:102D90005422282100908E20FDF773FE00204FF66C
:102DA000E0736F22282100909620FDF76AFE002034
:102DB0004FF6E073532228210090A620FDF761FE14
:102DC00000204FF6E073742228210090AE20FDF71A
:102DD00058FE00204FF6E073612228210090B620B3
:102DE000FDF74FFE00204FF6E0737222282100907D
:102DF000BE20FDF746FE00204FF6E0737422282126
:102E00000090C620FDF73DFE2148006800F0040058
:102E100008B9012004900498012800D101E000BF06
:102E200032E600BFFEE31948FEF7C8FB4FF4A0707E
:102E30000023F022194600901846FDF7E7FD002018
:102E40004FF6E07349224FF4907100900820FDF78F
:102E500018FE00204FF6E0736E224FF49071009040
:102E60001020FDF70EFE00204FF6E07373224FF4A2
:102E7000907100901820FDF704FE00204FF6E073DB
:102E800074224FF490710090202003E000127A0029
:102E900008180140FDF7F5FD00204FF6E07372229F
:102EA0004FF4907100902820FDF7EBFD00204FF6C5
:102EB000E07375224FF4907100903020FDF7E1FD32
:102EC00000204FF6E07363224FF490710090382099
:102ED000FDF7D7FD00204FF6E07374224FF4907198
:102EE00000904020FDF7CDFD00204FF6E0736922F1
:102EF0004FF4907100904820FDF7C3FD00204FF67D
:102F0000E0736F224FF4907100905020FDF7B9FDEF
:102F100000204FF6E0736E224FF49071009058201D
:102F2000FDF7AFFD00204FF6E0733A224FF49071A9
:102F300000906020FDF7A5FD00204FF6E0734322CE
:102F40004FF4887100900820FDF79BFD00204FF69C
:102F5000E0736F224FF4887100901020FDF791FD0F
:102F600000204FF6E0736E224FF488710090182015
:102F7000FDF787FD00204FF6E07374224FF488714F
:102F800000902020FDF77DFD00204FF6E0737222B7
:102F90004FF4887100902820FDF773FD00204FF654
:102FA000E0736F224FF4887100903020FDF769FDC7
:102FB00000204FF6E0736C224FF4887100903820A7
:102FC000FDF75FFD00204FF6E07350224FF488714B
:102FD00000904820FDF755FD00204FF6E073612278
:102FE0004FF4887100905020FDF74BFD00204FF604
:102FF000E07363224FF4887100905820FDF741FD83
:1030000000204FF6E0732D224FF48871009060206D
:10301000FDF737FD00204FF6E0734D224FF4887125
:1030200000906820FDF72DFD00204FF6E07361222F
:103030004FF4887100907020FDF723FD00204FF6BB
:10304000E0736E224FF4887100907820FDF719FD2F
:1030500000204FF6E0732E224FF4887100908020FC
:10306000FDF70FFD00204FF6E07359224FF48071F9
:1030700000900820FDF705FD00204FF6E0736F2259
:103080004FF4807100901020FDF7FBFC00204FF6FC
:10309000E07375224FF4807100901820FDF7F1FC69
:1030A00000204FF6E0736D224FF4807100902820CD
:1030B000FDF7E7FC00204FF6E07375224FF48071B6
:1030C00000903020FDF7DDFC00204FF6E073732206
:1030D0004FF4807100903820FDF7D3FC00204FF6AC
:1030E000E07374224FF4807100904020FDF7C9FC1A
:1030F00000204FF6E07365224FF48071009050205D
:10310000FDF7BFFC00204FF6E07361224FF48071A1
:1031100000905820FDF7B5FC00204FF6E0737422B4
:103120004FF4807100906020FDF7ABFC00204FF65B
:10313000E07361224FF4807100907020FDF7A1FCD4
:1031400000204FF6E0736C224FF4807100907820DD
:10315000FDF797FC00204FF6E0736C224FF480716E
:1031600000908020FDF78DFC00204FF6E073742264
:103170004FF4807100909020FDF783FC00204FF603
:10318000E07368224FF4807100909820FDF779FC7D
:1031900000204FF6E07365224FF480710090A0206C
:1031A000FDF76FFC00204FF6E07364224FF480714E
:1031B0000090B020FDF765FC00204FF6E0736F2211
:1031C0004FF480710090B820FDF75BFC00204FF6B3
:1031D000E07374224FF480710090C020FDF751FC21
:1031E00000204FF6E07373224FF480710090C820E6
:1031F000FDF747FC00204FF6E0736922F0210090B4
:103200000820FDF73EFC00204FF6E0736E22F0210F
:1032100000901020FDF735FC00204FF6E07373227C
:10322000F02100901820FDF72CFC00204FF6E073F1
:103230006922F02100902020FDF723FC00204FF6AA
:10324000E0736422F02100902820FDF71AFC002092
:103250004FF6E0736522F02100903020FDF711FC5D
:1032600000204FF6E0737422F02100904020FDF71B
:1032700008FC00204FF6E0736822F02100904820FF
:10328000FDF7FFFB00204FF6E0736522F021009070
:103290005020FDF7F6FB00204FF6E0736D22F02181
:1032A00000906020FDF7EDFB00204FF6E0736122F7
:1032B000F02100906820FDF7E4FB00204FF6E0735A
:1032C0007022F02100901046FDF7DBFB00204FF646
:1032D000E0737722F02100908020FDF7D2FB0020E0
:1032E0004FF6E0736822F02100908820FDF7C9FBBB
:1032F00000204FF6E0736922F02100909020FDF746
:10330000C0FB00204FF6E0736C22F0210090982063
:10331000FDF7B7FB00204FF6E0736522F021009027
:10332000A020FDF7AEFB00204FF6E0736122F021F4
:103330000090B020FDF7A5FB00204FF6E073762249
:10334000F0210090B820FDF79CFB00204FF6E073C1
:103350006F22F0210090C020FDF793FB00204FF674
:10336000E0736922F0210090C820FDF78AFB00205D
:103370004FF6E0736422F0210090D020FDF781FB2E
:1033800000204FF6E0737422E02100900820FDF742
:1033900078FB00204FF6E0736822E02100901020B7
:1033A000FDF76FFB00204FF6E0736522E0210090EF
:1033B0001820FDF766FB00204FF6E0736322E02142
:1033C00000902820FDF75DFB00204FF6E0736F2290
:1033D000E02100903020FDF754FB00204FF6E07311
:1033E0006C22E02100903820FDF74BFB00204FF6C7
:1033F000E0736F22E02100904020FDF742FB0020A7
:103400004FF6E0737222E02100904820FDF739FB6F
:1034100000204FF6E0736522E02100905020FDF778
:1034200030FB00204FF6E0736422E021009058202A
:10343000FDF727FB00204FF6E0736722E0210090A4
:103440006820FDF71EFB00204FF6E0736822E021A4
:1034500000907020FDF715FB00204FF6E0736F22FF
:10346000E02100907820FDF70CFB00204FF6E07380
:103470007322E02100908020FDF703FB00204FF62F
:10348000E0737422E02100908820FDF7FAFA002012
:103490004FF6E0732E22E02100909020FDF7F1FA24
:1034A00000204FF6E0735522C02100900820FDF760
:1034B000E8FA00204FF6E0737022C021009010203F
:1034C000FDF7DFFA00204FF6E0733A22C0210090AA
:1034D0001820FDF7D6FA00204FF6E0733822C021FD
:1034E00000902020FDF7CDFA00204FF6E073442233
:1034F000C02100903020FDF7C4FA00204FF6E073A1
:103500006F22C02100903820FDF7BBFA00204FF653
:10351000E0737722C02100904020FDF7B2FA00202E
:103520004FF6E0736E22C02100904820FDF7A9FA03
:1035300000204FF6E0733A22C02100905020FDF7A2
:10354000A0FA00204FF6E0733522C02100905820E9
:10355000FDF797FA00204FF6E0734C22C02100904F
:103560006820FDF78EFA00204FF6E0736522C02137
:1035700000907020FDF785FA00204FF6E073662278
:10358000C02100907820FDF77CFA00204FF6E07310
:103590007422C02100908020FDF773FA00204FF6BE
:1035A000E0733A22C02100908820FDF76AFA0020DB
:1035B0004FF6E0733422C02100909020FDF761FAAD
:1035C00000204FF6E0735222C0210090A020FDF7AA
:1035D00058FA00204FF6E0736922C0210090A8201D
:1035E000FDF74FFA00204FF6E0736722C0210090EC
:1035F000B020FDF746FA00204FF6E0736822C021A4
:103600000090B820FDF73DFA00204FF6E0737422D9
:10361000C02100900846FDF734FA00204FF6E07311
:103620003A2200E030E0C0210090C820FDF729FADE
:1036300000204FF6E0733622C0210090D020FDF725
:1036400020FA0520FE49086019E0A020202350221E
:10365000114600900020FDF7D9F9F948007803469B
:103660002022502104904FF6FF70FDF7FDFBF54836
:10367000FDF7A4FFF2480068401EF1490860F048D9
:1036800000680028E1DC01E0FFF7CDBB00BFEE4899
:103690000268EE480168EE480068FEF753FCED4909
:1036A00008607DE2EC480068642807DB0020EA49F6
:1036B0000860EA480078401CE8490870E64800685D
:1036C000C117049000EB117001110498A0EB0110D8
:1036D00004281BD1E2480078012803D10020E049EA
:1036E000087002E00120DE490870DE4800680078BA
:1036F00018B1DC480068007800E001200246049020
:10370000D7480178D3480068FEF767FED6480078AE
:1037100070BBD1480068C117049000EB1170011113
:103720000498A0EB0110082822D1D048007870B18D
:10373000CF48007818B10020CD49087002E0012080
:10374000CB490870C9480078401EC8490870C54870
:103750000068007818B1C3480068007800E00120D4
:1037600002460490BE480178BA480068FEF735FE6C
:10377000B9480068C117049000EB1170011104985A
:10378000A0EB011008284BD1B6480068007818B1AA
:10379000B4480068007800E0012002460490B04878
:1037A0000178AC480068FEF718FEAF48007820B1F9
:1037B000AD480078401EAC490870AB48007800283E
:1037C00006DD0122A2480168A6480068FEF7D8FC81
:1037D000A84803689D4802689D4801689D480068A4
:1037E000FEF710FDA4480078642190FBF1F00A2157
:1037F00090FBF1F201FB1200C0B20A909E480078E3
:1038000090FBF1F090FBF1F201FB1200C0B20990C5
:103810009948007890FBF1F201FB1200C0B20890C9
:103820008D480068C117049000EBD16041110498E5
:10383000A0EB4110102851D18A480068007818B1D7
:1038400088480068007800E001200246049084481F
:10385000017880480068FEF7C0FD8348007830B9E1
:1038600001227B4801687F480068FEF789FC834895
:10387000007828B181480078401E8049087005E032
:10388000002211467E480068FEF77CFF79480368F5
:103890006E4802686E4801686E480068FEF7B2FC28
:1038A00075480078642190FBF1F00A2190FBF1F259
:1038B00001FB1200C0B20A906F48007890FBF1F053
:1038C00090FBF1F201FB1200C0B209906A48007847
:1038D00090FBF1F201FB1200C0B208906948007839
:1038E000642190FBF1F00A2190FBF1F201FB120040
:1038F000C0B207906348007890FBF1F090FBF1F2C2
:1039000001FB1200C0B206905E48007890FBF1F215
:1039100001FB1200C0B2059000204FF6A0435322D5
:1039200001460090FDF7ADF800204FF6A04343227A
:10393000014600900820FDF7A4F800204FF6A043B0
:103940004F22014600901020FDF79BF800204FF613
:10395000A0435222014600901820FDF792F8002063
:103960004FF6A0434522014600902020FDF789F83C
:1039700000204FF6A0433A22014600902820FDF790
:1039800080F80020009007983030C0B24FF6A04376
:103990000246002104903020FDF773F800200090CB
:1039A00006983030C0B24FF6A04302460021049082
:1039B0003820FDF766F80020009005983030C0B23E
:1039C0004FF6A0430246002104904020FDF759F82D
:1039D00000204FF6A0435322014600905020FDF7EF
:1039E00050F800204FF6A043652201460090582071
:1039F000FDF747F800204FF6A043652201460090EE
:103A00006020FDF73EF800204FF6A04364220146F7
:103A100000906820FDF735F800204FF6A0433A22C9
:103A2000014600907020FDF72CF8002000900A98C5
:103A30003030C0B24FF6A04302460021049023E08C
:103A40004CEB002000127A0074EB00206CEB00209D
:103A500058EB002054EB002050EB002097EB0020A7
:103A600061EB00205CEB00207DEB002079EB002077
:103A700078EB002088EB002060EB002090EB00202A
:103A80008CEB002096EB00207820FCF7FAFF00205A
:103A9000009009983030C0B24FF6A0430246002192
:103AA00004908020FCF7EDFF002000900898303053
:103AB000C0B24FF6A0430246002104908820FCF7D4
:103AC000E0FF00204FF6A0435422014600909820CA
:103AD000FCF7D7FF00204FF6A04369220146009073
:103AE000A020FCF7CEFF00204FF6A0436D22014638
:103AF0000090A820FCF7C5FF00204FF6A0436522E8
:103B000001460090B020FCF7BCFF00204FF6A04318
:103B10003A2201460090B820FCF7B3FFFE48007837
:103B2000642190FBF1F00A2190FBF1F201FB1200FD
:103B30003030C0B2049000204FF6A0430090014600
:103B4000C020049AFCF79DFFF34800780A2190FBFF
:103B5000F1F090FBF1F201FB12003030C0B20490A2
:103B600000204FF6A04300900146C820049AFCF7BD
:103B700088FFE94800780A2190FBF1F201FB12006E
:103B80003030C0B2049000204FF6A04300900146B0
:103B9000D020049AFCF775FFE048007800B900E0F7
:103BA00080E500BF3CE200200490049800B138E2B8
:103BB000DB48FDF703FDDBA10220FCF7F5FCDD4847
:103BC0000078692812D10120DB490968087000BF1C
:103BD000DA48006800F4E060D9490843001DD7497D
:103BE0000860BFF3408F00BF00BFFEE700204FF624
:103BF000E0735922BE2100902220FCF742FF0020F2
:103C00004FF6E0734F22BE2100902A20FCF739FFC7
:103C100000204FF6E0735522BE2100903220FCF7C1
:103C200030FF00204FF6E0735722BE210090422063
:103C3000FCF727FF00204FF6E0734922BE210090D9
:103C40004A20FCF71EFF00204FF6E0734E22BE21F3
:103C500000905220FCF715FF00204FF6E073212260
:103C6000BE2100905A20FCF70CFF00204FF6E073B5
:103C70005422AA2100902220FCF703FF00204FF6D7
:103C8000E0736922AA2100902A20FCF7FAFE0020A6
:103C90004FF6E0736D22AA2100903220FCF7F1FE6E
:103CA00000204FF6E0736522AA2100903A20FCF72D
:103CB000E8FE00204FF6E0733A22AA21009042204D
:103CC000FCF7DFFE94480178642091FBF0F00A21B4
:103CD00090FBF1F201FB12003030C0B203900020E3
:103CE0004FF6E0730090AA214A20039AFCF7C9FE20
:103CF000894800780A2190FBF1F090FBF1F201FB7A
:103D000012003030C0B2039000204FF6E0730090F4
:103D1000AA215220039AFCF7B4FE7F4800780A21BA
:103D200090FBF1F201FB12003030C0B20390002092
:103D30004FF6E0730090AA215A20039AFCF7A1FEE7
:103D400000204FF6E0737322AA2100906220FCF756
:103D500098FE00204FF6E073432296210090222027
:103D6000FCF78FFE00204FF6E0736F229621009043
:103D70002A20FCF786FE00204FF6E0736E22962183
:103D800000903220FCF77DFE00204FF6E0736722A2
:103D9000962100903A20FCF774FE00204FF6E07365
:103DA0007222962100904220FCF76BFE00204FF615
:103DB000E0736122962100904A20FCF762FE002009
:103DC0004FF6E0737422962100905220FCF759FEC2
:103DD00000204FF6E0737522962100905A20FCF7E0
:103DE00050FE00204FF6E0736C2296210090622076
:103DF000FCF747FE00204FF6E07361229621009009
:103E00006A20FCF73EFE00204FF6E07374229621F4
:103E100000907220FCF735FE00204FF6E073692217
:103E2000962100907A20FCF72CFE00204FF6E073DC
:103E30006F22962100908220FCF723FE00204FF68F
:103E4000E0736E22962100908A20FCF71AFE002073
:103E50004FF6E0737322962100909220FCF711FE3A
:103E600000204FF6E073212296210090A420FCF759
:103E700008FE00204FF6E07350228221009022209D
:103E8000FCF7FFFD00204FF6E073722282210090C4
:103E90002A20FCF7F6FD00204FF6E0736522822110
:103EA00000903220FCF7EDFD00204FF6E073732206
:103EB000822100903A20FCF7E4FD00204FF6E073E9
:103EC0007322822100904220FCF7DBFD00204FF698
:103ED000E0732222822100905220FCF7D2FD0020C4
:103EE0004FF6E0734B22822100905A20FCF7C9FD67
:103EF00000204FF6E0734522822100906220FCF7FB
:103F0000C0FD00204FF6E0735922822100906A2004
:103F1000FCF7B7FD002015E097EB002060EB0020D8
:103F200000127A0053686F772073636F72653A20CE
:103F30003134300088EA00208CEA00200CED00E0EB
:103F40000000FA054FF6E0733222822100907220C1
:103F5000FCF797FD00204FF6E073222282210090AB
:103F60007A20FCF78EFD00204FF6E0735422822168
:103F700000908A20FCF785FD00204FF6E0736F2249
:103F8000822100909220FCF77CFD00204FF6E07328
:103F9000522282210090A220FCF773FD00204FF6F0
:103FA000E073652282210090AA20FCF76AFD0020C0
:103FB0004FF6E073732282210090B220FCF761FD7E
:103FC00000204FF6E073742282210090BA20FCF7A3
:103FD00058FD00204FF6E073612282210090C2203C
:103FE000FCF74FFD00204FF6E07372228221009013
:103FF000CA20FCF746FD00204FF6E07374228221B0
:104000000090D220FCF73DFDF748006800F0040066
:1040100008B9012004900498012800D101E000BFF4
:10402000C1E500BF00200BB000BD2DE9F04F87B007
:1040300005460C460027042000F08EFC064663204F
:104040000690814695F800A095F803B02078059079
:10405000E0780490687800EB8000E44901EBC00050
:10406000617810F811000390687800EB8000DF4958
:1040700001EBC000217910F811000290287900EBC3
:104080008000DA4901EBC000617810F8110001905E
:10409000287900EB8000D54901EBC000217910F8A8
:1040A0001100009003980AEB000105980844307055
:1040B00002980AEB000104980844707001980BEB19
:1040C000000105980844B07000980BEB00010498BB
:1040D0000844F07000BF08E0F15D0698814203DA01
:1040E000F05D069007F0FF097F1C042FF4DBB9F1A7
:1040F000000F02D0B9F1020F02D194F8028001E062
:1041000094F80580404607B0BDE8F08F2DE9F84FE0
:1041100081460F460025A84600200090824683462F
:1041200006214846FDF7FCFE064606213846FDF707
:10413000F7FE044670786178884205D1307921799C
:10414000884201D14FF0010A70782179884205D167
:1041500030796178884201D14FF0010BBAF1000F3C
:1041600002D1BBF1000F2CD07078317988420DDD7F
:10417000002509E016F80580E81C305C7055E81C45
:1041800006F80080681CC5B2032DF3DB6078217946
:1041900088420DDD002509E014F80580E81C205C4C
:1041A0006055E81C04F80080681CC5B2032DF3DBE1
:1041B00020783178884202DA6079009001E0A078B6
:1041C0000090304600F0F7FB204600F0F4FB00982A
:1041D000BDE8F88F0246002100BF13E001EB81002B
:1041E000834B13F81000137898420AD101EB810039
:1041F0007F4B03EB400040785378984201D1C8B21E
:104200007047491C7B4800788142E7DB6320F7E771
:1042100001460020012900D10320022900D10420F9
:10422000032900D10120042900D10220704701296F
:1042300002D102780B3A0270022902D142780E3A7A
:104240004270032902D102780B320270042902D194
:1042500042780E32427070472DE9F05F064688467C
:1042600014464FF0000B0027C146BA464946304677
:10427000FEF7D0F98346BBF1000F3AD049463046ED
:10428000FFF7D5FF4846FFF7C3FF8246B94670786F
:1042900000EB4000584901EB80003178475C022F69
:1042A0001FDC18D12078401C207001250AE0E9B2FB
:1042B0003046FEF721FA20B1554502D005F0FF093E
:1042C00002E06D1C042DF2DD00BF22464946304657
:1042D000FFF7C2FF48E02078401C20706320607028
:1042E00042E02078401C20703046FFF773FF60707A
:1042F0003AE041463046FEF7CDF94846FFF788FFE1
:1043000082464FF00009707800EB40003A4901EB1B
:1043100080003178475C022F1FDC18D12078401CC8
:10432000207001250AE0E9B23046FEF7E5F920B138
:10433000554502D005F0FF0902E06D1C042DF2DDA9
:1043400000BF224649463046FFF786FF0CE0207842
:10435000401C20706320607006E02078401C2070B4
:104360003046FFF737FF6070BDE8F09F2DE9F35F3F
:1043700088464FF0000B0027C146BA4601210220B3
:1043800000F0D6FA044602210098FDF7C9FD064662
:1043900049463046FEF73EF98346BBF1000F45D053
:1043A00049463046FFF743FF4846FFF731FF824654
:1043B000B946707800EB40000F4901EB800031787E
:1043C000475C022F2ADC23D12078401C2070012575
:1043D00015E0E9B23046FEF78FF978B155450DD0BA
:1043E00005F0FF090DE0000008180140285C0008F6
:1043F000485F00087CEB0020745B00086D1C042DF6
:10440000E7DD00BF224649463046FFF725FF48E07A
:104410002078401C20706320607042E02078401CAF
:1044200020703046FFF7D6FE60703AE041463046D5
:10443000FEF730F94846FFF7EBFE82464FF00009E1
:10444000707800EB4000F74901EB80003178475C61
:10445000022F1FDC18D12078401C207001250AE0B3
:10446000E9B23046FEF748F920B1554502D005F0D3
:10447000FF0902E06D1C042DF2DD00BF2246494613
:104480003046FFF7E9FE0CE02078401C20706320E6
:10449000607006E02078401C20703046FFF79AFEDE
:1044A0006070304600F087FA2046BDE8FC9F2DE999
:1044B000F84F06464FF0000900250027DA4800684B
:1044C000FFF788FE05460A2095FBF0F0303000F03B
:1044D000FF0A00204FF61963524601460090FCF790
:1044E000D0FA0A2095FBF0F100FB1150303000F0BB
:1044F000FF0A00204FF6196352460146009008203B
:10450000FCF7BFFA632D21D0A9460A2095FBF0F0F5
:10451000303000F0FF0A00204FF619635246014682
:1045200000903820FCF7ADFA0A2095FBF0F100FB73
:104530001150303000F0FF0A00204FF61963524648
:10454000014600904020FCF79CFA2EE0002402E097
:1045500063203055641C062CFADB012420E0E1B214
:10456000B1480068FEF7C8F8C8B1E1B2AE480068CB
:10457000FFF7FCFE804698F8001007EB4700315427
:1045800098F8011007EB4700401C315407EB470037
:10459000801C3454781CC7B2012F00DD02E0641C7B
:1045A000042CDCDD00BF4FF06309404600F003FA45
:1045B0004846BDE8F88F2DE9F04704464FF0000962
:1045C000C846002699480068FFF704FE8046B8F107
:1045D000630F01D0C1463BE0002502E06320605537
:1045E0006D1C062DFADB01251EE0E9B28F4800683C
:1045F000FEF782F8B8B1E9B28C480068FFF7B6FE62
:104600000746397806EB46002154797806EB4600D8
:10461000401C215406EB4600801C2554701CC6B279
:10462000012E00DD02E06D1C042DDEDD00BF607890
:10463000632802D02079632808D16078632802D1EA
:1046400094F8049004E094F8019001E04FF06309BD
:10465000384600F0B0F94846BDE8F0872DE9F0474C
:104660004FF0000900270025A846062000F074F945
:104670000646062000F070F904463046FFF79BFF1F
:1046800007462046FFF713FF054621463046FFF751
:104690003DFD8046B8F1000F02D04046BDE8F087EE
:1046A000632F37D0632D09D005EB8500604901EBFE
:1046B000C00000EB470090F801906EE0607863283E
:1046C00004D12078632801D0A078E7E72079632817
:1046D00004D1E078632801D06079DFE7607800EBEF
:1046E0008000534901EBC00010F8170021780844FE
:1046F000217901EB81014E4A02EBC10111F817103B
:10470000E2781144884202DA94F8029045E094F885
:10471000059042E0632D2BD005EB8500444901EB69
:10472000C000717810F811003178084405EB85015C
:104730003F4A02EBC101327911F81210F2781144AC
:1047400088420ADA05EB8500394901EBC00071782F
:1047500000EB410090F801901FE005EB8500344923
:1047600001EBC000317900EB410090F8019014E0BA
:104770006078632804D12078632801D0A0788DE781
:104780002079632804D1E078632801D0607985E737
:1047900021463046FFF749FC8146304600F00BF9D0
:1047A000204600F008F9484678E770B50446002531
:1047B0002048006850F824001B490860FFF74EFFAE
:1047C00005461C49096851F824002946FDF762FF97
:1047D00070BD2DE9F04105464FF00008002616484F
:1047E0000078002879D115480078002875D1002478
:1047F0006FE01048006850F824000B49086010482A
:104800000068005D00BBFBF70BFD032190FBF1F29C
:1048100001FB12000B49096808550A20084909687C
:10482000085518E0745B000868EB002058EB002086
:10483000285C00086CEB00207DEB002079EB002069
:1048400084EB002080EB002034480068005D401EAF
:1048500032490968085532480068005DE8B9012707
:1048600009E0E1B22F480068FDF746FF10B1AC55F2
:10487000701CC6B27F1C042FF3DDFBF7D1FC90FB4C
:10488000F6F106FB110015F800802749096851F878
:1048900024004146FDF7FEFE002621480068005D29
:1048A000012809D1FFF7DAFE80461F49096851F84F
:1048B00024004146FDF7EEFE19480068005D02281D
:1048C00006D11949096851F824004146FDF7E2FE76
:1048D000641C1648007884428BDBBDE8F08170B51B
:1048E00005460024012409E0E1B20E480068FDF706
:1048F00003FF10B1AC4200D0E6B2641C042CF3DD1F
:10490000304670BD70B505460E46022000F024F812
:10491000044625706670204670BD000084EB0020C0
:1049200080EB002068EB00206CEB00207AEB00208D
:1049300070B5A0FB0140B4F1805170F1000024BFBC
:10494000002070BD204600F007F805001CBF21467E
:1049500000F0FEF8284670BD70B5064600F0A6F8D7
:10496000056806F10B0020F00704B4429CBF00204C
:1049700070BD2B466A68BAB11068A04210D304F12A
:10498000080188423CBF5068586007D3516810192D
:1049900041601168091B016058601460101D70BDF2
:1049A00013465268002AE7D12146284600F086F8CF
:1049B0000028DED170BD70B50446051F00F076F802
:1049C0000068002C14BF446870BD002C18BFAC42B6
:1049D0003CBF20466468F8D301680A18AA4218BF91
:1049E000456003D12A6805461144016028684119D1
:1049F000A1421CBF6C6070BD616869602168084499
:104A0000286070BD0B4910B5A1F17C020A4CC2E9C7
:104A10003712372106E000EB104342F82130074BF4
:104A200000FB03400B1EA1F10101F4DC10BD0120CD
:104A3000E8E7000018EC0020E119D666CD0D010072
:104A400010B5203AC0F00B80B1E81850203AA0E829
:104A50001850B1E81850A0E81850BFF4F5AF5FEA5D
:104A6000027C24BFB1E81850A0E8185044BF18C910
:104A700018C0BDE810405FEA827C24BF51F8043BB7
:104A800040F8043B08BF7047D20728BF31F8023B0B
:104A900048BF11F8012B28BF20F8023B48BF00F89F
:104AA000012B7047704770477047000000487047FF
:104AB00088EC0020704770477047704738B504464F
:104AC0000A4600206946AFF30080002808BF38BDC1
:104AD00002460099204600F061F8012038BD01200F
:104AE00000F076B8F8B5AFF30080054600200C461C
:104AF000102000BF0646A819A0420DD932466946CB
:104B00000020AFF30080070008BF00F061F80098B4
:104B1000A04218BF0546C419FFF7C8FF0560074645
:104B2000F01D20F007004619284600F00AF8B442AC
:104B300008BFF8BDA21B31463868BDE8F84000F058
:104B40002DB800210160C0E90110704710207047A6
:104B50004FF000020429C0F0128010F0030C00F0A6
:104B60004080CCF1040CBCF1020F18BF00F8012BFF
:104B7000A8BF20F8022BA1EB0C0100F032B85FEACD
:104B8000C17C24BF00F8012B00F8012B48BF00F8BE
:104B9000012B70470048704780EC002003464068B6
:104BA0008C46002818BF88423CBF03464068F8D3B3
:104BB00018681844884207D00CF1030020F0070061
:104BC000001D411A521A0146081D0A60FFF7F3BE84
:104BD00010B500F05DF8BDE8104000F053B84FF09C
:104BE000000200B5134694469646203922BFA0E83D
:104BF0000C50A0E80C50B1F12001BFF4F7AF090749
:104C000028BFA0E80C5048BF0CC05DF804EB890039
:104C100028BF40F8042B08BF704748BF20F8022B7C
:104C200011F0804F18BF00F8012B70477047754690
:104C3000FFF7B0FFAE4605006946534620F0070077
:104C4000854618B020B5FBF703FCBDE820404FF0C7
:104C500000064FF000074FF000084FF0000B21F066
:104C60000701AC46ACE8C009ACE8C009ACE8C00933
:104C7000ACE8C0098D4670470446AFF3008020467B
:104C8000FBF7C7FA002801D000F02AB870470000EF
:104C900010B5012805D0002103A000F027F801205D
:104CA00010BD09A1F8E7000053494752544D454D46
:104CB0003A204F7574206F662068656170206D65BD
:104CC0006D6F7279000000003A2048656170206DB8
:104CD000656D6F727920636F7272757074656400B0
:104CE00001491820ABBEFEE72600020070B505465C
:104CF0000C460A2000E06D1C00F011F835B1287850
:104D00000028F8D102E0641C00F009F814B1207802
:104D10000028F8D1BDE870400A20AFF3008008B544
:104D200069468DF800000320ABBE08BD90EA010F74
:104D300048BF81F0004100F12E82421A3CBF801A28
:104D400089184FEAD0524FF07F4C1CEA410FA2EB7A
:104D5000D15318BF9CEA026F00F03B804FF0004C2B
:104D60004CEA00204CEA012121FA03FC10EB0C0C68
:104D70001ED202F1FF325FEA1C2040EBC25038BF66
:104D800070471CF07F0F4FEA400C18BFBCF17F4FFB
:104D900038BF7047C3F12003994008BF20F00100DD
:104DA000BCF17F4F38BF7047A0F1C04000F0DDB9C3
:104DB0004FEA3C00000A40EBC25028BF1CF0FF0F36
:104DC0004FEA400CE6D018BFBCF17F4F38BF7047A8
:104DD000EAE79CEA026F05D010EA5C0F08BF00F01A
:104DE0000040704710B500F07AF900BF64FBBE3E8A
:104DF0004FF47F0C1CEAD0121EBF1CEAD11392EABA
:104E00000C0F93EA0C0F00F0858090EA010F48BF69
:104E100042F4807240F4000C41F400002CF07F4119
:104E200020F07F4000B58142A2EB03020FF2081C84
:104E3000ACEB504EC0F100009EF800E04FEA4E0E81
:104E400000FB0EFC38BF49004FEA2C1C02F5FA02A9
:104E50000CFB0EF34FEACE1E4FEA112C4FEAC12194
:104E60000EEB635E42EB22420EFB0CFC4FEA1C533E
:104E700000FB03114FEA112C4FEA01310EFB0CFC31
:104E80004FEADC4C00FB0C11C14228BF09184CEB67
:104E900003335DF804EB10EB410143EBC250B2F574
:104EA0007C0F38BF704729D512F0F00F1CBF00F1FE
:104EB000C04000F00040704700818283848586876F
:104EC00088898B8C8D8E8F919293959697999A9CC9
:104ED0009D9FA0A2A3A5A7A8AAACAEB0B2B3B5B738
:104EE000B9BCBEC0C2C5C7C9CCCED1D4D7D9DCDF0E
:104EF000E2E6E9ECF0F3F7FAFE0000004FEA400CBE
:104F00000CF1807CBCF17E4F28BF7047B0F1C040EF
:104F100000F02BB990EA010F0CEAD11348BF42F41C
:104F20008072624538BF634507D213F47F0F16D0F5
:104F300080EA010000F00040704710B500F0CFF8A3
:104F4000097EFC3E00F005B880EA010000F0004058
:104F5000704780EA010000F0004000F006B912F44A
:104F60007F0F04BF0248704780EA010000F0FDB8DF
:104F70000000C07FC10DD1F19E0206DB4FEA002385
:104F800043F0004323FA02F07047004207D54FEA8E
:104F90004001B1F1FE4F02D24FF00000704710B552
:104FA00000F09DF849922480002070476FEA2000AD
:104FB00070470000B0FA80F310FA03F2C3F19D03CA
:104FC0000AD0D90501EB1220530638BF704700F113
:104FD000010008BF20F00100704700004FF47F0C73
:104FE0001CEAD0121EBF1CEAD11392EA0C0F93EAFE
:104FF0000C0F00F0478090EA010F48BF42F4807226
:105000004FF0004C4CEA00204CEA012102EB030275
:10501000A0FB0113A2F50002002918BF43F0010311
:105020005B0028BF4FEA330342EB22425FEA132CB6
:105030004CEBC2502EBFBCEB436FB2F57C0F7047F8
:105040004FEA036CBCF1004F08BF20F00100B2F53D
:105050007C0F38BF70470BD582F0FF0212F5803FFE
:10506000C8BF704700F1C040D8BF00F00040704793
:1050700000F5000C5FEA4C0C48BF7047B0F1C0402F
:1050800000F073B890EA010F0CEAD11348BF42F464
:105090008072624538BF634504D280EA010000F0A7
:1050A0000040704710B500F01AF800BF8900013EBB
:1050B00000F007B800F009B85FEA410C5FEA1C6C29
:1050C00008D080EA010000F050B85FEA400C5FEAC7
:1050D0001C6CF6D14FF00040A0F5800070470EF137
:1050E000020E2EF0030E5EF8044B244204D44FEA65
:1050F0004102B2F17F4F11D84FEA4003B3F17F4F25
:105100000CD80ED14FEAD07CB2F17F4F0CEB4C0C97
:105110000CF1020C08BF4CEBD17C04E04FF0080C02
:1051200001E04FEAD17C0CEB4C0324FA03F404F0C9
:105130000704B4F1040C06D20EEB840CBDE8104059
:105140004CF0010C6047DFE80CF0070802024FF05A
:105150000040A0F5800010BD0846420018BFD2F103
:10516000807288BF00F0004010BDFF2141EAD0509E
:10517000C005704780F0004090EA010F7FF5DDAD7B
:1051800081F0004100F007B890EA010F48BF81F0BC
:1051900000413FF5D2AD421A04D882F00042A0EBA4
:1051A000020011444FEAD0524FF07F4C1CEA410FED
:1051B000A2EBD15318BF9CEA026F4AD04FF0004CCB
:1051C0004CEA00204CEA012121FA03FCB0EB0C0C64
:1051D0000FD412F0FE0F36D05FEA4C001DD500123E
:1051E00040EBC25038BF70471CF03F0F18BF7047EC
:1051F0000BE0A2F101025FEA1C2040EBC25038BF75
:1052000070471CF07F0F18BF7047C3F1200399400F
:1052100014BF401E20F00100704780084FEA12239F
:1052200008BF7047B0FA80FCA2EB0C02CCF1280C4E
:1052300060FA0CF093EA122F04BF00EBC2507047E3
:105240004FEAC3707047130A5FEADC1008BF70476B
:10525000F6E79CEA026F04D010EA5C0F08BF00205A
:10526000704710B5FFF73BFF40DFF63E81F000408E
:105270007047000000000000000000000000000077
:10528000000000000000000000001FCC000C000027
:10529000000000000000080030006000080030003E
:1052A00060000000022003FC1E20022003FC1E20E0
:1052B0000220000000000E1811043FFF10840C783B
:1052C000000000000F0010840F3800C00778188419
:1052D0000078000000780F8410C411240E9800E4B8
:1052E0000084000808006800700000000000000052
:1052F0000000000000000000000007E01818200473
:1053000040020000000040022004181807E00000DE
:10531000000000000240024001800FF001800240C6
:10532000024000000080008000800FF800800080B4
:10533000008000000001000D000E000000000000D1
:1053400000000000000000800080008000800080DD
:10535000008000800000000C000C00000000000035
:105360000000000000000006001800600180060038
:1053700018002000000007F00808100410040808B6
:1053800007F000000000080408041FFC00040004EB
:105390000000000000000E0C1014102410441184B2
:1053A0000E0C000000000C181004110411041288E7
:1053B0000C700000000000E00320042408241FFCFF
:1053C0000024000000001F981084110411041088AC
:1053D00010700000000007F00888110411041888FC
:1053E0000070000000001C00100010FC13001C00E6
:1053F0001000000000000E38114410841084114485
:105400000E38000000000700088C10441044088883
:1054100007F00000000000000000030C030C000077
:105420000000000000000000000101060000000074
:105430000000000000000080014002200410080865
:10544000100400000220022002200220022002207C
:10545000022000000000100408080410022001408F
:105460000080000000000E001200100C106C108074
:105470000F00000003E00C1813E4142417C40828DC
:1054800007D000000004003C03C41C40074000E4B7
:10549000001C000410041FFC1104110411040E88E8
:1054A0000070000003E00C18100410041004100831
:1054B0001C10000010041FFC100410041004080845
:1054C00007F0000010041FFC1104110417C410049D
:1054D0000818000010041FFC1104110017C0100070
:1054E0000800000003E00C181004100410441C789D
:1054F0000040000010041FFC108400800080108415
:105500001FFC10040000100410041FFC1004100401
:105510000000000000030001100110011FFE100038
:105520001000000010041FFC110403801464181CF8
:105530001004000010041FFC100400040004000408
:10554000000C000010041FFC1F0000FC1F001FFCCB
:105550001004000010041FFC0C04030000E01018ED
:105560001FFC100007F008081004100410040808BD
:1055700007F0000010041FFC1084108010801080C1
:105580000F00000007F0081810241024101C080A4F
:1055900007F2000010041FFC1104110011C01130AB
:1055A0000E0C000400000E1C110410841084104422
:1055B0001C3800001800100010041FFC100410001C
:1055C0001800000010001FF810040004000410046C
:1055D0001FF8100010001E0011E0001C0070138066
:1055E0001C0010001FC0103C00E01F0000E0103C39
:1055F0001FC000001004180C163401C001C016347E
:10560000180C100410001C00130400FC13041C00F0
:10561000100000000804101C1064108413041C0403
:10562000101800000000000000007FFE4002400251
:1056300040020000000030000C0003800060001CED
:105640000003000000004002400240027FFE000014
:10565000000000000000000020004000400040006A
:105660002000000000010001000100010001000114
:105670000001000100004000400020000000000088
:10568000000000000000009801240144014401448E
:1056900000FC000410001FFC0088010401040088C5
:1056A0000070000000000070008801040104010483
:1056B0000088000000000070008801040104110847
:1056C0001FFC0004000000F80144014401440144AF
:1056D00000C800000000010401040FFC11041104C3
:1056E00011001800000000D601290129012901C973
:1056F0000106000010041FFC0084010001000104E9
:1057000000FC000400000104190419FC000400045A
:10571000000000000000000300010101190119FE52
:105720000000000010041FFC0024004001B4010C24
:10573000010400000000100410041FFC0004000419
:1057400000000000010401FC0104010001FC01044F
:10575000010000FC010401FC0084010001000104BF
:1057600000FC0004000000F801040104010401042D
:1057700000F80000010101FF008501040104008818
:1057800000700000000000700088010401040105A1
:1057900001FF00010104010401FC00840104010077
:1057A00001800000000000CC012401240124012418
:1057B0000198000000000100010007F80104010445
:1057C00000000000010001F80004000400040108CA
:1057D00001FC0004010001800170000C0010016058
:1057E0000180010001F0010C003001C00030010C0B
:1057F00001F0010000000104018C00740170018CB3
:1058000001040000010101810171000E0018016016
:105810000180010000000184010C01340144018475
:10582000010C0000000000000000000001003EFC30
:10583000400240020000000000000000FFFF0000E6
:10584000000000000000400240023EFC0100000099
:105850000000000000006000800080004000400068
:10586000200020000000100110021C021304108808
:10587000905070201050108813041C021002100168
:105880001001000000001FFE3084D08410841FFE31
:105890000500793F11221122FF2211221122113F0E
:1058A00011000000000020112FD2AA547D58297049
:1058B0007D58AA542FD200007FFF401044085B108F
:1058C00060E000000000080108820F44F82808107A
:1058D00008680F86000000001FFE1004100410046A
:1058E0001FFE00000000002020222FAC2AA02AAEBC
:1058F0002AA12AA1FFF12AAD2AA12AA72AA02FA80E
:105900002066003080008FC288418882F87C0200C7
:10591000020003FFFE02AB04AAC0AA20AA508284A0
:105920000202000000000000000000000000000073
:105930000000000000000000000000000000000067
:105940000000000000000000000000000000000057
:105950000000000000000000000000000000000047
:105960000000000000000000000000000000000037
:105970000000000000000000000000000000000027
:105980000000000000000000000000000000000017
:105990000000000000000000000000000000000007
:1059A00000000000010101010101000001010000EF
:1059B00000000101000101000101010101000001DD
:1059C00000010100000101010001010001010100CD
:1059D00001010101010101010000000001010101BB
:1059E0000101010101010100010100000A37820AE1
:1059F000410A4B37410A0A370A37000A000A0A37B8
:105A0000000A4B370A37410A000000004C04E80343
:105A1000E803E803E803E803E803E803E803E8032E
:105A2000E803E9036400000000000000000000003B
:105A30000000000000000000000001006400000001
:105A40000000000000000000000000000000000056
:105A500000000100640000000000000000000000E1
:105A600000000000000000000000010064000000D1
:105A70000000000000000000000000000000000026
:105A800000000100640000000000000000000000B1
:105A900000000000000000000000010064000000A1
:105AA00000000000000000000000000000000000F6
:105AB0000000010064000000000000000000000081
:105AC0000000000000000000000001006400000071
:105AD00000000000000000000000000000000000C6
